{
  "_format": "hh3-artifact-1",
  "contractName": "DoctorStore",
  "sourceName": "contracts/DoctorContract.sol",
  "abi": [
    {
      "inputs": [],
      "stateMutability": "nonpayable",
      "type": "constructor"
    },
    {
      "anonymous": false,
      "inputs": [
        {
          "indexed": false,
          "internalType": "uint256",
          "name": "id",
          "type": "uint256"
        },
        {
          "indexed": false,
          "internalType": "string",
          "name": "name",
          "type": "string"
        },
        {
          "indexed": false,
          "internalType": "string",
          "name": "specialty",
          "type": "string"
        },
        {
          "indexed": false,
          "internalType": "uint256",
          "name": "fee",
          "type": "uint256"
        }
      ],
      "name": "DoctorRegistered",
      "type": "event"
    },
    {
      "anonymous": false,
      "inputs": [
        {
          "indexed": false,
          "internalType": "uint256",
          "name": "id",
          "type": "uint256"
        },
        {
          "indexed": false,
          "internalType": "bool",
          "name": "available",
          "type": "bool"
        }
      ],
      "name": "DoctorUpdated",
      "type": "event"
    },
    {
      "inputs": [],
      "name": "doctorCount",
      "outputs": [
        {
          "internalType": "uint256",
          "name": "",
          "type": "uint256"
        }
      ],
      "stateMutability": "view",
      "type": "function"
    },
    {
      "inputs": [
        {
          "internalType": "uint256",
          "name": "",
          "type": "uint256"
        }
      ],
      "name": "doctors",
      "outputs": [
        {
          "internalType": "uint256",
          "name": "id",
          "type": "uint256"
        },
        {
          "internalType": "string",
          "name": "name",
          "type": "string"
        },
        {
          "internalType": "string",
          "name": "specialty",
          "type": "string"
        },
        {
          "internalType": "string",
          "name": "experience",
          "type": "string"
        },
        {
          "internalType": "uint256",
          "name": "fee",
          "type": "uint256"
        },
        {
          "internalType": "bool",
          "name": "available",
          "type": "bool"
        },
        {
          "internalType": "uint256",
          "name": "timestamp",
          "type": "uint256"
        }
      ],
      "stateMutability": "view",
      "type": "function"
    },
    {
      "inputs": [],
      "name": "getAllDoctors",
      "outputs": [
        {
          "components": [
            {
              "internalType": "uint256",
              "name": "id",
              "type": "uint256"
            },
            {
              "internalType": "string",
              "name": "name",
              "type": "string"
            },
            {
              "internalType": "string",
              "name": "specialty",
              "type": "string"
            },
            {
              "internalType": "string",
              "name": "experience",
              "type": "string"
            },
            {
              "internalType": "uint256",
              "name": "fee",
              "type": "uint256"
            },
            {
              "internalType": "bool",
              "name": "available",
              "type": "bool"
            },
            {
              "internalType": "uint256",
              "name": "timestamp",
              "type": "uint256"
            }
          ],
          "internalType": "struct DoctorStore.Doctor[]",
          "name": "",
          "type": "tuple[]"
        }
      ],
      "stateMutability": "view",
      "type": "function"
    },
    {
      "inputs": [],
      "name": "getCount",
      "outputs": [
        {
          "internalType": "uint256",
          "name": "",
          "type": "uint256"
        }
      ],
      "stateMutability": "view",
      "type": "function"
    },
    {
      "inputs": [
        {
          "internalType": "uint256",
          "name": "_id",
          "type": "uint256"
        }
      ],
      "name": "getDoctor",
      "outputs": [
        {
          "components": [
            {
              "internalType": "uint256",
              "name": "id",
              "type": "uint256"
            },
            {
              "internalType": "string",
              "name": "name",
              "type": "string"
            },
            {
              "internalType": "string",
              "name": "specialty",
              "type": "string"
            },
            {
              "internalType": "string",
              "name": "experience",
              "type": "string"
            },
            {
              "internalType": "uint256",
              "name": "fee",
              "type": "uint256"
            },
            {
              "internalType": "bool",
              "name": "available",
              "type": "bool"
            },
            {
              "internalType": "uint256",
              "name": "timestamp",
              "type": "uint256"
            }
          ],
          "internalType": "struct DoctorStore.Doctor",
          "name": "",
          "type": "tuple"
        }
      ],
      "stateMutability": "view",
      "type": "function"
    },
    {
      "inputs": [],
      "name": "owner",
      "outputs": [
        {
          "internalType": "address",
          "name": "",
          "type": "address"
        }
      ],
      "stateMutability": "view",
      "type": "function"
    },
    {
      "inputs": [
        {
          "internalType": "string",
          "name": "_name",
          "type": "string"
        },
        {
          "internalType": "string",
          "name": "_specialty",
          "type": "string"
        },
        {
          "internalType": "string",
          "name": "_experience",
          "type": "string"
        },
        {
          "internalType": "uint256",
          "name": "_fee",
          "type": "uint256"
        }
      ],
      "name": "registerDoctor",
      "outputs": [],
      "stateMutability": "nonpayable",
      "type": "function"
    },
    {
      "inputs": [
        {
          "internalType": "uint256",
          "name": "_id",
          "type": "uint256"
        },
        {
          "internalType": "bool",
          "name": "_available",
          "type": "bool"
        }
      ],
      "name": "setAvailability",
      "outputs": [],
      "stateMutability": "nonpayable",
      "type": "function"
    }
  ],
  "bytecode": "0x6080604052348015600e575f5ffd5b503360025f6101000a81548173ffffffffffffffffffffffffffffffffffffffff021916908373ffffffffffffffffffffffffffffffffffffffff1602179055506117f58061005c5f395ff3fe608060405234801561000f575f5ffd5b5060043610610086575f3560e01c80638da5cb5b116100595780638da5cb5b1461012a578063a865bf8014610148578063a87d942c14610164578063f0d950901461018257610086565b80630104e5c31461008a57806369b0a72d146100a65780636efb1b84146100d657806378522bc41461010c575b5f5ffd5b6100a4600480360381019061009f9190610d61565b6101a0565b005b6100c060048036038101906100bb9190610e19565b610369565b6040516100cd9190610f74565b60405180910390f35b6100f060048036038101906100eb9190610e19565b6105e5565b6040516101039796959493929190610ffa565b60405180910390f35b6101146107cf565b604051610121919061107c565b60405180910390f35b6101326107d5565b60405161013f91906110d4565b60405180910390f35b610162600480360381019061015d9190611117565b6107fa565b005b61016c61095b565b604051610179919061107c565b60405180910390f35b61018a610964565b60405161019791906112b7565b60405180910390f35b60025f9054906101000a900473ffffffffffffffffffffffffffffffffffffffff1673ffffffffffffffffffffffffffffffffffffffff163373ffffffffffffffffffffffffffffffffffffffff161461022f576040517f08c379a000000000000000000000000000000000000000000000000000000000815260040161022690611321565b60405180910390fd5b60015f8154809291906102419061136c565b91905055505f6040518060e00160405280600154815260200186815260200185815260200184815260200183815260200160011515815260200142815250908060018154018082558091505060019003905f5260205f2090600702015f909190919091505f820151815f015560208201518160010190816102c291906115b0565b5060408201518160020190816102d891906115b0565b5060608201518160030190816102ee91906115b0565b506080820151816004015560a0820151816005015f6101000a81548160ff02191690831515021790555060c0820151816006015550507fc32cc574467b22a18b8bc7aee58a8a6d8492148aa5aee81dbe950b2f0642b11460015485858460405161035b949392919061167f565b60405180910390a150505050565b610371610ba6565b5f8211801561038257506001548211155b6103c1576040517f08c379a00000000000000000000000000000000000000000000000000000000081526004016103b89061171a565b60405180910390fd5b5f6001836103cf9190611738565b815481106103e0576103df61176b565b5b905f5260205f2090600702016040518060e00160405290815f8201548152602001600182018054610410906113e0565b80601f016020809104026020016040519081016040528092919081815260200182805461043c906113e0565b80156104875780601f1061045e57610100808354040283529160200191610487565b820191905f5260205f20905b81548152906001019060200180831161046a57829003601f168201915b505050505081526020016002820180546104a0906113e0565b80601f01602080910402602001604051908101604052809291908181526020018280546104cc906113e0565b80156105175780601f106104ee57610100808354040283529160200191610517565b820191905f5260205f20905b8154815290600101906020018083116104fa57829003601f168201915b50505050508152602001600382018054610530906113e0565b80601f016020809104026020016040519081016040528092919081815260200182805461055c906113e0565b80156105a75780601f1061057e576101008083540402835291602001916105a7565b820191905f5260205f20905b81548152906001019060200180831161058a57829003601f168201915b5050505050815260200160048201548152602001600582015f9054906101000a900460ff161515151581526020016006820154815250509050919050565b5f81815481106105f3575f80fd5b905f5260205f2090600702015f91509050805f015490806001018054610618906113e0565b80601f0160208091040260200160405190810160405280929190818152602001828054610644906113e0565b801561068f5780601f106106665761010080835404028352916020019161068f565b820191905f5260205f20905b81548152906001019060200180831161067257829003601f168201915b5050505050908060020180546106a4906113e0565b80601f01602080910402602001604051908101604052809291908181526020018280546106d0906113e0565b801561071b5780601f106106f25761010080835404028352916020019161071b565b820191905f5260205f20905b8154815290600101906020018083116106fe57829003601f168201915b505050505090806003018054610730906113e0565b80601f016020809104026020016040519081016040528092919081815260200182805461075c906113e0565b80156107a75780601f1061077e576101008083540402835291602001916107a7565b820191905f5260205f20905b81548152906001019060200180831161078a57829003601f168201915b505050505090806004015490806005015f9054906101000a900460ff16908060060154905087565b60015481565b60025f9054906101000a900473ffffffffffffffffffffffffffffffffffffffff1681565b60025f9054906101000a900473ffffffffffffffffffffffffffffffffffffffff1673ffffffffffffffffffffffffffffffffffffffff163373ffffffffffffffffffffffffffffffffffffffff1614610889576040517f08c379a000000000000000000000000000000000000000000000000000000000815260040161088090611321565b60405180910390fd5b5f8211801561089a57506001548211155b6108d9576040517f08c379a00000000000000000000000000000000000000000000000000000000081526004016108d09061171a565b60405180910390fd5b805f6001846108e89190611738565b815481106108f9576108f861176b565b5b905f5260205f2090600702016005015f6101000a81548160ff0219169083151502179055507fa9e569dd949a18355b01ef0174778c45d420d19495ed9ccb27d64e92a84b066d828260405161094f929190611798565b60405180910390a15050565b5f600154905090565b60605f805480602002602001604051908101604052809291908181526020015f905b82821015610b9d578382905f5260205f2090600702016040518060e00160405290815f82015481526020016001820180546109c0906113e0565b80601f01602080910402602001604051908101604052809291908181526020018280546109ec906113e0565b8015610a375780601f10610a0e57610100808354040283529160200191610a37565b820191905f5260205f20905b815481529060010190602001808311610a1a57829003601f168201915b50505050508152602001600282018054610a50906113e0565b80601f0160208091040260200160405190810160405280929190818152602001828054610a7c906113e0565b8015610ac75780601f10610a9e57610100808354040283529160200191610ac7565b820191905f5260205f20905b815481529060010190602001808311610aaa57829003601f168201915b50505050508152602001600382018054610ae0906113e0565b80601f0160208091040260200160405190810160405280929190818152602001828054610b0c906113e0565b8015610b575780601f10610b2e57610100808354040283529160200191610b57565b820191905f5260205f20905b815481529060010190602001808311610b3a57829003601f168201915b5050505050815260200160048201548152602001600582015f9054906101000a900460ff1615151515815260200160068201548152505081526020019060010190610986565b50505050905090565b6040518060e001604052805f81526020016060815260200160608152602001606081526020015f81526020015f151581526020015f81525090565b5f604051905090565b5f5ffd5b5f5ffd5b5f5ffd5b5f5ffd5b5f601f19601f8301169050919050565b7f4e487b71000000000000000000000000000000000000000000000000000000005f52604160045260245ffd5b610c4082610bfa565b810181811067ffffffffffffffff82111715610c5f57610c5e610c0a565b5b80604052505050565b5f610c71610be1565b9050610c7d8282610c37565b919050565b5f67ffffffffffffffff821115610c9c57610c9b610c0a565b5b610ca582610bfa565b9050602081019050919050565b828183375f83830152505050565b5f610cd2610ccd84610c82565b610c68565b905082815260208101848484011115610cee57610ced610bf6565b5b610cf9848285610cb2565b509392505050565b5f82601f830112610d1557610d14610bf2565b5b8135610d25848260208601610cc0565b91505092915050565b5f819050919050565b610d4081610d2e565b8114610d4a575f5ffd5b50565b5f81359050610d5b81610d37565b92915050565b5f5f5f5f60808587031215610d7957610d78610bea565b5b5f85013567ffffffffffffffff811115610d9657610d95610bee565b5b610da287828801610d01565b945050602085013567ffffffffffffffff811115610dc357610dc2610bee565b5b610dcf87828801610d01565b935050604085013567ffffffffffffffff811115610df057610def610bee565b5b610dfc87828801610d01565b9250506060610e0d87828801610d4d565b91505092959194509250565b5f60208284031215610e2e57610e2d610bea565b5b5f610e3b84828501610d4d565b91505092915050565b610e4d81610d2e565b82525050565b5f81519050919050565b5f82825260208201905092915050565b8281835e5f83830152505050565b5f610e8582610e53565b610e8f8185610e5d565b9350610e9f818560208601610e6d565b610ea881610bfa565b840191505092915050565b5f8115159050919050565b610ec781610eb3565b82525050565b5f60e083015f830151610ee25f860182610e44565b5060208301518482036020860152610efa8282610e7b565b91505060408301518482036040860152610f148282610e7b565b91505060608301518482036060860152610f2e8282610e7b565b9150506080830151610f436080860182610e44565b5060a0830151610f5660a0860182610ebe565b5060c0830151610f6960c0860182610e44565b508091505092915050565b5f6020820190508181035f830152610f8c8184610ecd565b905092915050565b610f9d81610d2e565b82525050565b5f82825260208201905092915050565b5f610fbd82610e53565b610fc78185610fa3565b9350610fd7818560208601610e6d565b610fe081610bfa565b840191505092915050565b610ff481610eb3565b82525050565b5f60e08201905061100d5f83018a610f94565b818103602083015261101f8189610fb3565b905081810360408301526110338188610fb3565b905081810360608301526110478187610fb3565b90506110566080830186610f94565b61106360a0830185610feb565b61107060c0830184610f94565b98975050505050505050565b5f60208201905061108f5f830184610f94565b92915050565b5f73ffffffffffffffffffffffffffffffffffffffff82169050919050565b5f6110be82611095565b9050919050565b6110ce816110b4565b82525050565b5f6020820190506110e75f8301846110c5565b92915050565b6110f681610eb3565b8114611100575f5ffd5b50565b5f81359050611111816110ed565b92915050565b5f5f6040838503121561112d5761112c610bea565b5b5f61113a85828601610d4d565b925050602061114b85828601611103565b9150509250929050565b5f81519050919050565b5f82825260208201905092915050565b5f819050602082019050919050565b5f60e083015f8301516111935f860182610e44565b50602083015184820360208601526111ab8282610e7b565b915050604083015184820360408601526111c58282610e7b565b915050606083015184820360608601526111df8282610e7b565b91505060808301516111f46080860182610e44565b5060a083015161120760a0860182610ebe565b5060c083015161121a60c0860182610e44565b508091505092915050565b5f611230838361117e565b905092915050565b5f602082019050919050565b5f61124e82611155565b611258818561115f565b93508360208202850161126a8561116f565b805f5b858110156112a557848403895281516112868582611225565b945061129183611238565b925060208a0199505060018101905061126d565b50829750879550505050505092915050565b5f6020820190508181035f8301526112cf8184611244565b905092915050565b7f4f6e6c7920686f73706974616c2061646d696e2063616e20646f2074686973005f82015250565b5f61130b601f83610fa3565b9150611316826112d7565b602082019050919050565b5f6020820190508181035f830152611338816112ff565b9050919050565b7f4e487b71000000000000000000000000000000000000000000000000000000005f52601160045260245ffd5b5f61137682610d2e565b91507fffffffffffffffffffffffffffffffffffffffffffffffffffffffffffffffff82036113a8576113a761133f565b5b600182019050919050565b7f4e487b71000000000000000000000000000000000000000000000000000000005f52602260045260245ffd5b5f60028204905060018216806113f757607f821691505b60208210810361140a576114096113b3565b5b50919050565b5f819050815f5260205f209050919050565b5f6020601f8301049050919050565b5f82821b905092915050565b5f6008830261146c7fffffffffffffffffffffffffffffffffffffffffffffffffffffffffffffffff82611431565b6114768683611431565b95508019841693508086168417925050509392505050565b5f819050919050565b5f6114b16114ac6114a784610d2e565b61148e565b610d2e565b9050919050565b5f819050919050565b6114ca83611497565b6114de6114d6826114b8565b84845461143d565b825550505050565b5f5f905090565b6114f56114e6565b6115008184846114c1565b505050565b5b81811015611523576115185f826114ed565b600181019050611506565b5050565b601f8211156115685761153981611410565b61154284611422565b81016020851015611551578190505b61156561155d85611422565b830182611505565b50505b505050565b5f82821c905092915050565b5f6115885f198460080261156d565b1980831691505092915050565b5f6115a08383611579565b9150826002028217905092915050565b6115b982610e53565b67ffffffffffffffff8111156115d2576115d1610c0a565b5b6115dc82546113e0565b6115e7828285611527565b5f60209050601f831160018114611618575f8415611606578287015190505b6116108582611595565b865550611677565b601f19841661162686611410565b5f5b8281101561164d57848901518255600182019150602085019450602081019050611628565b8683101561166a5784890151611666601f891682611579565b8355505b6001600288020188555050505b505050505050565b5f6080820190506116925f830187610f94565b81810360208301526116a48186610fb3565b905081810360408301526116b88185610fb3565b90506116c76060830184610f94565b95945050505050565b7f496e76616c696420646f63746f722049440000000000000000000000000000005f82015250565b5f611704601183610fa3565b915061170f826116d0565b602082019050919050565b5f6020820190508181035f830152611731816116f8565b9050919050565b5f61174282610d2e565b915061174d83610d2e565b92508282039050818111156117655761176461133f565b5b92915050565b7f4e487b71000000000000000000000000000000000000000000000000000000005f52603260045260245ffd5b5f6040820190506117ab5f830185610f94565b6117b86020830184610feb565b939250505056fea26469706673582212204f37a6f901dc2a8c083affc6a82225a9c344288eac4cc4343c37c3d39fb9d03764736f6c634300081c0033",
  "linkReferences": {},
  "deployedLinkReferences": {},
  "immutableReferences": {},
  "inputSourceName": "project/contracts/DoctorContract.sol",
  "buildInfoId": "solc-0_8_28-d69af0b8b6c6a1bc4c0f4bedb074026320327d42"
}